:020000021000EC
:10E000000C944AF00C9469F00C9469F00C9469F04B
:10E010000C9469F00C9469F00C9469F00C9469F01C
:10E020000C9469F00C9469F00C9469F00C9469F00C
:10E030000C9469F00C9469F00C9469F00C9469F0FC
:10E040000C9469F00C9469F00C9469F00C9469F0EC
:10E050000C9469F00C9469F00C9469F00C9469F0DC
:10E060000C9469F00C9469F00C9469F00C9469F0CC
:10E070000C9469F00C9469F00C9469F00C9469F0BC
:10E080000C9469F00C9469F00C9469F00C9469F0AC
:10E090000C9469F011241FBECFEFD0E1DEBFCDBFDD
:10E0A00011E0A0E0B1E0E0E1F9EE01E00BBF02C059
:10E0B00007900D92A230B107D9F712E0A2E0B1E0CB
:10E0C00001C01D92AD30B107E1F70E9486F10C94BA
:10E0D00086F40C9400F0982F80910201813019F0A1
:10E0E000823041F008958091C00085FFFCCF90936D
:10E0F000C60008958091C80085FFFCCF9093CE00A4
:10E1000008951F93982F9595959595959595905D64
:10E110008F708A3054F4182F105D892F0E946BF095
:10E12000812F0E946BF01F910895182F195A892F83
:10E130000E946BF0812F0E946BF01F910895EF9267
:10E14000FF920F931F9380910201813069F1823019
:10E1500031F080E01F910F91FF90EF900895EE2431
:10E16000FF2487018091C80087FD17C00894E11C37
:10E17000F11C011D111D81E4E81682E4F8068FE010
:10E18000080780E0180770F3E0910401F0910501A1
:10E1900009958091C80087FFE9CF8091CE001F913B
:10E1A0000F91FF90EF900895EE24FF248701809156
:10E1B000C00087FD17C00894E11CF11C011D111D52
:10E1C00081E4E81682E4F8068FE0080780E018078B
:10E1D00070F3E0910401F091050109958091C00070
:10E1E00087FFE9CF8091C6001F910F91FF90EF90BC
:10E1F00008951F930E949FF0182F0E946BF0113614
:10E2000034F410330CF01053812F1F9108951755DB
:10E21000812F1F9108951F930E94F9F0182F0E94DB
:10E22000F9F01295107F810F1F910895982F20917A
:10E230000201992339F0213031F0223061F0915000
:10E240009923C9F708958091C00087FFFCCF809182
:10E25000C6009150F5CF8091C80087FFFCCF809118
:10E26000CE009150EDCF1F93182F0E949FF0803267
:10E2700081F0809103018F5F80930301853011F05D
:10E280001F910895E0910401F091050109951F91F6
:10E29000089584E10E946BF0812F0E946BF080E171
:10E2A0000E946BF01F9108950E949FF0803271F0E0
:10E2B000809103018F5F80930301853009F00895F9
:10E2C000E0910401F09105010995089584E10E940F
:10E2D0006BF080E10E946BF0089540E951E08823E3
:10E2E000A1F02F9828EE33E0FA013197F1F7215091
:10E2F0003040D1F72F9A28EE33E0FA013197F1F749
:10E3000021503040D1F7815061F70895CF92DF92CC
:10E31000EF92FF920F931F93CF93DF93000081E062
:10E320008093020180E18093C4001092C500109296
:10E33000C00086E08093C20088E18093C1006898A5
:10E34000709A279A84E00E946DF1FF24F3940E9452
:10E350009FF08033C9F18133D1F1803409F457C083
:10E36000813409F45DC0823409F46CC0853409F449
:10E370006FC0803549F1823539F1813529F1853514
:10E3800009F46CC0863509F474C0843609F47DC084
:10E39000843709F4E7C0853709F44BC1863709F49F
:10E3A0004DC0813209F45EC1809103018F5F80937B
:10E3B0000301853061F6E0910401F09105010995B2
:10E3C0000E949FF0803339F60E9454F1C0CF0E9422
:10E3D0009FF0803249F784E10E946BF081E40E9453
:10E3E0006BF086E50E946BF082E50E946BF080E2A4
:10E3F0000E946BF089E40E946BF083E50E946BF051
:10E4000080E50E946BF080E10E946BF0A0CF0E943B
:10E410009FF08638C8F20E949FF00E9454F197CF77
:10E420000E949FF0803809F499C0813809F4FDC03A
:10E43000823809F413C1883909F48CC080E00E9445
:10E4400033F185CF84E10E9416F10E9454F17FCF11
:10E4500085E00E9416F10E9454F179CF0E949FF04E
:10E46000809306010E949FF0809307010E9454F15F
:10E470006ECF0E949FF0803309F43AC183E00E947E
:10E4800016F180E00E9433F162CF0E949FF08093EA
:10E4900009020E949FF08093080280910C028E7FF7
:10E4A00080930C020E949FF0853409F432C1809160
:10E4B000080290910902892B89F000E010E00E9487
:10E4C0009FF0F801E85FFE4F80830F5F1F4F809140
:10E4D0000802909109020817190788F30E949FF01B
:10E4E000803209F061CF80910C0280FF24C120911D
:10E4F000060130910701220F331F3093070120934B
:10E5000006018091080290910902892BE1F000E058
:10E5100010E0F801E85FFE4FC90160810E9479F4C4
:10E5200020910601309107012F5F3F4F3093070183
:10E53000209306010F5F1F4F8091080290910902FE
:10E540000817190730F384E10E946BF080E10E9404
:10E550006BF0FDCE83E00E9433F1F9CE82E00E94A1
:10E5600033F1F5CE0E949FF0809309020E949FF044
:10E5700080930802209106013091070137FDCFC03A
:10E5800080910C028D7F80930C02220F331F3093F9
:10E590000701209306010E949FF0853409F4C5C04D
:10E5A00080910C028E7F80930C020E949FF080323B
:10E5B00009F0CDCE84E10E946BF080910802909129
:10E5C0000902892B09F446C000E010E02091060101
:10E5D0003091070117C0F90184910E946BF02091DE
:10E5E0000601309107012F5F3F4F309307012093C1
:10E5F00006010F5F1F4F80910802909109020817D2
:10E60000190740F580910C0280FD62C081FFE3CFC5
:10E61000C901A0E0B0E080509040AF4FBF4FABBF0A
:10E62000FC0187910E946BF0DACF81E00E9433F108
:10E630008ECE0E949FF0803209F0B6CE84E10E9417
:10E640006BF08EE10E946BF087E90E946BF081E82D
:10E650000E946BF080E10E946BF079CE80E10E9415
:10E6600033F175CE0E949FF0813209F070CE0E9486
:10E670009FF0813209F06BCE279A2F9A10920A02EE
:10E680008AE00E946BF08DE00E946BF08AE30E94AA
:10E690006BF080E20E946BF00E949FF0182F0E94A6
:10E6A0006BF0143709F4CBC0123709F4CFC0173719
:10E6B00009F4E7C0153709F4B9C0123609F4F8C0F7
:10E6C0001A36F1F6E0910401F09105010995D8CFD1
:10E6D000C9010E9471F40E946BF0209106013091F3
:10E6E00007012F5F3F4F309307012093060181CF31
:10E6F0000E949FF00E949FF0182F0E949FF011230C
:10E7000009F48CC0113009F48DC081E80E9433F106
:10E710001ECE80910C02816080930C02C8CE809145
:10E720000C02826080930C0230CF80910C028160D9
:10E7300080930C023ACF809107018823880F880BC1
:10E740008F2180930B028BBF80910601909107016E
:10E75000880F991F9093070180930601809108020A
:10E7600080FF09C080910802909109020196909360
:10E77000090280930802F894F999FECF1127E091DD
:10E780000601F0910701C8E0D1E080910802909164
:10E790000902103091F40091570001700130D9F353
:10E7A00003E000935700E895009157000170013095
:10E7B000D9F301E100935700E89509901990009171
:10E7C000570001700130D9F301E000935700E8953C
:10E7D0001395103898F011270091570001700130FF
:10E7E000D9F305E000935700E895009157000170B8
:10E7F0000130D9F301E100935700E8953296029772
:10E8000009F0C7CF103011F00296E5CF112484E152
:10E810000E946BF080E10E946BF099CD8EE10E9426
:10E8200033F195CD87E90E9433F191CD0E949FF09D
:10E830000E946BF00E949FF00E946BF0F7CF1F992F
:10E840001BC02F9A80E30E946BF01ACF0E949FF0AA
:10E850000E946BF00E940BF1182F0E940BF1082F01
:10E860008DE30E946BF0F12EEE24F701E00FF11D15
:10E8700080810E9481F004CF2F9881E30E946BF089
:10E88000FFCE0E949FF00E946BF00E940BF1182FA8
:10E890000E940BF1082F0E949FF00E946BF00E94D3
:10E8A0000BF1D12ECC24F601E00FF11D8083E8CED0
:10E8B00082E60E946BF085E70E946BF083E70E947E
:10E8C0006BF080E885BF109274001092750080E0B4
:10E8D00091E1FC01819180E091E13097D1F3CF018A
:10E8E000F8CFF999FECF92BD81BDF89A992780B5EE
:10E8F0000895262FF999FECF92BD81BD20BD0FB698
:10E90000F894FA9AF99A0FBE01960895F894FFCFF9
:02E91000800085
:040000031000E00009
:00000001FF
